:100000000C9434000C9451000C9451000C94510049
:100010000C9451000C9451000C9451000C9451001C
:100020000C9451000C9451000C9451000C9451000C
:100030000C9451000C9464010C9451000C945100E8
:100040000C9451000C9451000C94BA020C94E802E8
:100050000C9451000C9479010C9451000C945100B3
:100060000C9451000C94510011241FBECFEFD8E026
:10007000DEBFCDBF11E0A0E0B1E0E0E6F9E002C0F4
:1000800005900D92A033B107D9F721E0A0E3B1E0CC
:1000900001C01D92AC3BB207E1F70E940A010C942B
:1000A000AE040C940000299A85E08A95F1F70000CF
:1000B00029980895CF93C82F662311F0289A01C07C
:1000C0002898549A559A569A579A5F985E985D98D0
:1000D0005C98CC230CF45F9AC6FD5E9AC5FD5D9AD0
:1000E000C4FD5C9A0E9453005F985E985D985C988E
:1000F000C3FD5F9AC2FD5E9AC1FD5D9AC0FD5C9A28
:100100000E9453005C9A5D9A5E9A5F9A87EB9BE02F
:100110000197F1F700C00000CF91089560E00E94C0
:100120005A000895611104C080580E948E000895FD
:1001300080540E948E00089581E00E948E000895F0
:1001400061E00E945A000895CF93DF93EC0121965D
:10015000FC018081882329F00E94A00089918111EF
:10016000FBCFDF91CF910895CF93C82F209A559A56
:10017000219A549A559A569A579A8FEF99EF019768
:10018000F1F700C000005D9A5C9A0E9453008FE175
:100190009EE40197F1F700C000000E9453008FEF2A
:1001A00090E00197F1F700C000000E9453008FEF2C
:1001B00090E00197F1F700C000005C980E945300A6
:1001C0008FEF90E00197F1F700C0000088E20E94F5
:1001D0008E0088E00E948E000E949C0086E00E94B3
:1001E0008E008C2F0E948E00CF910895009779F099
:1001F00030E061E070E0262F3111272F322FAC0163
:1002000041505109842395230097A9F701C030E09C
:10021000832F08958CE00E94B40060E081E00E948A
:10022000920080E091E00E94A40061E083E00E94DF
:10023000920087E091E00E94A40060E088E00E94C4
:1002400092008CE091E00E94A40060E08DE00E94AA
:1002500092008EE091E00E94A40061E088E00E949C
:10026000920080E191E00E94A400ECE7F0E0808140
:100270008064808380818F7780838081807F80838A
:10028000EAE7F0E0808180688083808188608083F5
:1002900080818460808380818260808380818160AE
:1002A0008083E1E8F0E080818B7F808380818360C0
:1002B0008083EFE6F0E080818160808387E690E0D4
:1002C0000E9412037894FFCF1F920F920FB60F92E5
:1002D00011248F93EF93FF93EAE7F0E0808180642D
:1002E0008083FF91EF918F910F900FBE0F901F9021
:1002F00018951F920F920FB60F9211240F931F9310
:100300002F933F934F935F936F937F938F939F931D
:10031000AF93BF93EF93FF93CF93DF9300D000D0C1
:10032000CDB7DEB780E290E29A8389839C838B838A
:10033000009178001091790060E087E00E949200BF
:10034000CE0101960E94A4004AE0BE016F5F7F4F7C
:10035000C8010E94790460E087E00E949200CE010B
:1003600001960E94A40060E08CE00E94920082E16D
:1003700091E00E94A40060E08CE00E94920040E1C5
:10038000BE016F5F7F4FC8010E947904CE010196C4
:100390000E94A4000233110590F4E0E3F1E082E54D
:1003A000808389E4818387E4828388E4838384E58E
:1003B000848380E28583168285E5878361C0C801D6
:1003C000C3978138910578F4E0E3F1E085E5808317
:1003D00080E5818380E282838383848385831682A0
:1003E0008CE487834DC0C801855B910987379105EF
:1003F00088F4E0E3F1E08CE4808385E4818386E4A3
:10040000828384E5838380E284838583168284E407
:10041000878336C0C8018D529140873C910588F48E
:10042000E0E3F1E084E480838FE4818387E58283E5
:100430008EE4838380E284838583168283E58783C9
:100440001FC0C801855F91408B32914080F4E0E38A
:10045000F1E083E5808385E481839CE49283838358
:1004600083E4848384E585831682178209C0E0E3F0
:10047000F1E028E331E080E28193E217F307E1F74E
:1004800061E088E00E94920080E391E00E94A40075
:10049000023F83E0180708F054C080E391E00E9417
:1004A000400386E191E00E9440034AE0BE016F5F95
:1004B0007F4FC8010E947904CE0101960E9440033B
:1004C0008AE191E00E944003B80180E090E00E9440
:1004D0007E0326EF38E24CE950E40E94E4030E94D8
:1004E0004F03DC01CB014AE0BE016F5F7F4F0E94EA
:1004F0007904CE0101960E9440038EE191E00E94B2
:10050000400382E291E00E944003C8010E94F6008D
:10051000182F61E08DE00E94920042E0BE016F5F03
:100520007F4F812F90E00E947904CE0101960E94B6
:10053000A400CE0101960E9440038CE291E00E944B
:1005400040030F900F900F900F90DF91CF91FF918C
:10055000EF91BF91AF919F918F917F916F915F913B
:100560004F913F912F911F910F910F900FBE0F90C0
:100570001F9018951F920F920FB60F9211242F9370
:100580008F939F93EF93FF938091C0002091C600BB
:100590008C71E0913901EF5FEF7390913801E917A9
:1005A00039F0E0933901F0E0E45CFE4F208301C0B4
:1005B00082E090913701892B80933701FF91EF9171
:1005C0009F918F912F910F900FBE0F901F901895B4
:1005D0001F920F920FB60F9211248F939F93EF9358
:1005E000FF9390913B0180913A01981769F0E09157
:1005F0003A01EF5FEF73E0933A01F0E0E458FE4F09
:1006000080818093C60005C0E1ECF0E080818F7DA1
:100610008083FF91EF919F918F910F900FBE0F906C
:100620001F90189510923B0110923A0110923901D7
:100630001092380199231CF422E02093C000907896
:100640009093C5008093C40088E98093C10086E040
:100650008093C200089520913B012F5F2F739091EA
:100660003A012917E1F3E22FF0E0E458FE4F8083CE
:1006700020933B01E1ECF0E080818062808308956B
:10068000CF93DF93EC018881882331F021960E947B
:100690002B0389918111FBCFDF91CF9108950E94A7
:1006A000C30388F09F5798F0B92F9927B751B0F03E
:1006B000E1F0660F771F881F991F1AF0BA95C9F7E6
:1006C00014C0B13091F00E94DD03B1E008950C94A4
:1006D000DD03672F782F8827B85F39F0B93FCCF357
:1006E000869577956795B395D9F73EF49095809563
:1006F000709561957F4F8F4F9F4F0895E89409C083
:1007000097FB3EF490958095709561957F4F8F4F44
:100710009F4F9923A9F0F92F96E9BB279395F6955A
:10072000879577956795B795F111F8CFFAF4BB0FD8
:1007300011F460FF1BC06F5F7F4F8F4F9F4F16C03C
:10074000882311F096E911C0772321F09EE8872FC6
:10075000762F05C0662371F096E8862F70E060E082
:100760002AF09A95660F771F881FDAF7880F9695FB
:10077000879597F9089557FD9058440F551F59F0E4
:100780005F3F71F04795880F97FB991F61F09F3F7E
:1007900079F087950895121613061406551FF2CFA7
:1007A0004695F1DF08C0161617061806991FF1CFF7
:1007B00086957105610508940895E894BB2766271E
:1007C0007727CB0197F908950E94F7030C946804EA
:1007D0000E945A0438F00E94610420F0952311F021
:1007E0000C9451040C94570411240C94DE030E94C1
:1007F000BB0370F3959FC1F3950F50E0551F629FA7
:10080000F001729FBB27F00DB11D639FAA27F00D69
:10081000B11DAA1F649F6627B00DA11D661F829F90
:100820002227B00DA11D621F739FB00DA11D621F75
:10083000839FA00D611D221F749F3327A00D611D92
:10084000231F849F600D211D822F762F6A2F112474
:100850009F5750409AF0F1F088234AF0EE0FFF1FA7
:10086000BB1F661F771F881F91505040A9F79E3FFE
:10087000510580F00C9451040C94DE035F3FE4F3C7
:10088000983ED4F3869577956795B795F795E79554
:100890009F5FC1F7FE2B880F911D9695879597F95D
:1008A000089597F99F6780E870E060E008959FEFF2
:1008B00080EC089500240A941616170618060906F7
:1008C000089500240A9412161306140605060895C6
:1008D000092E0394000C11F4882352F0BB0F40F44E
:1008E000BF2B11F460FF04C06F5F7F4F8F4F9F4F8E
:1008F0000895BB274A3031F4992322F4BDE2909544
:1009000081959F4F0C948504BB27FB015527AA278F
:10091000880F991FAA1FA41710F0A41B839550518C
:10092000B9F7A05DAA3308F0A95DA193009779F704
:10093000B111B1931192CB010C949E04DC01FC0126
:10094000672F71917723E1F7329704C07C916D9303
:1009500070836291AE17BF07C8F30895F894FFCF74
:1009600076616C75653A006B65793A0061006200EA
:10097000630020202000203A200020402000206D2D
:100980005600205061726974793A20000D0A000007
:00000001FF
