S01800007369676E616C5F67656E657261746F722E7372656368
S11300000C9434000C9451000C9451000C94510045
S11300100C9451000C9451000C9451000C94510018
S11300200C9451000C9451000C9451000C94510008
S11300300C9451000C9451000C949A000C945100AF
S11300400C9451000C9451000C9444010C947201D2
S11300500C9451000C9451000C9451000C945100D8
S11300600C9451000C94510011241FBECFEFD8E022
S1130070DEBFCDBF13E0A0E0B1E0E2E3F4E002C0F4
S113008005900D92A631B107D9F723E0A6E1B3E0BC
S113009001C01D92AF39B207E1F70E9478000C94B9
S11300A017020C940000FC01408121E030E002C002
S11300B0220F331F6A95E2F7242B20830895FC0155
S11300C0908121E030E002C0220F331F6A95E2F7ED
S11300D02095292320830895FC01408121E030E00C
S11300E002C0220F331F6A95E2F724272083089564
S11300F085B5877F85BD84B5826084BD84B58E7FD8
S113010084BD85B5897F85BD85B5816085BDEEE6F5
S1130110F0E080818260808387E087BD60E087E2D1
S113012090E00E94530060E088E290E00E945F004B
S11301307894FFCF1F920F920FB60F9211240F9352
S11301401F932F933F934F935F936F937F938F935B
S11301509F93AF93BF93EF93FF93CF93DF9300D01D
S113016000D0CDB7DEB780E290E29A8389839C8386
S11301708B836091160370911703809118039091FB
S11301801903009110011091110120911201309175
S113019013010617170728073907E8F146E051E06D
S11301A00E9431018C5E9E4FFC01008110E0609141
S11301B0160370911703809118039091190348E076
S11301C051E00E9431018C5E9E4FFC018081080F3A
S11301D0111DC801959587954AE0BE016F5F7F4F59
S11301E090E00E94E201CE0101960E94B10180914B
S11301F0160390911703A0911803B0911903019667
S1130200A11DB11D8093160390931703A0931803A7
S1130210B093190308C010921001109211011092AA
S113022012011092130160E088E290E00E946C00D9
S11302300F900F900F900F90DF91CF91FF91EF915E
S1130240BF91AF919F918F917F916F915F914F91EA
S11302503F912F911F910F910F900FBE0F901F9000
S11302601895052E59E0660F771F881F991F5A9518
S1130270D1F7502DFA012081318140E050E00E94F5
S1130280C001C901917008951F920F920FB60F9289
S113029011242F938F939F93EF93FF938091C0002A
S11302A02091C6008C71E0911C03EF5FEF73909175
S11302B01B03E91739F0E0931C03F0E0E15EFC4F07
S11302C0208301C082E090911A03892B80931A0342
S11302D0FF91EF919F918F912F910F900FBE0F90EF
S11302E01F9018951F920F920FB60F9211248F939F
S11302F09F93EF93FF9390911E0380911D03981792
S113030069F0E0911D03EF5FEF73E0931D03F0E0EC
S1130310E15AFC4F80818093C60005C0E1ECF0E017
S113032080818F7D8083FF91EF919F918F910F90BA
S11303300FBE0F901F90189520911E032F5F2F73EF
S113034090911D032917E1F3E22FF0E0E15AFC4FED
S1130350808320931E03E1ECF0E08081806280833F
S11303600895CF93DF93EC018881882331F021969F
S11303700E949C0189918111FBCFDF91CF91089557
S1130380A1E21A2EAA1BBB1BFD010DC0AA1FBB1F95
S1130390EE1FFF1FA217B307E407F50720F0A21B07
S11303A0B30BE40BF50B661F771F881F991F1A9474
S11303B069F760957095809590959B01AC01BD019E
S11303C0CF010895BB274A3031F4992322F4BDE2CA
S11303D0909581959F4F0C94EE01BB27FB01552707
S11303E0AA27880F991FAA1FA41710F0A41B83958E
S11303F05051B9F7A05DAA3308F0A95DA193009705
S113040079F7B111B1931192CB010C940702DC017D
S1130410FC01672F71917723E1F7329704C07C9137
S11304206D9370836291AE17BF07C8F30895F89473
S1050430FFCFF8
S1130432B90202033903AD03B9043805C5056106DF
S113044220A107007F8182848587888A8B8D8F9083
S11304529293959698999B9C9E9FA1A2A4A5A7A8C6
S1130462AAABADAEB0B1B2B4B5B7B8B9BBBCBEBF3E
S1130472C0C2C3C4C6C7C8C9CBCCCDCED0D1D2D3D7
S1130482D4D5D7D8D9DADBDCDDDEDFE0E1E2E3E4A0
S1130492E5E6E7E8E9E9EAEBECEDEEEEEFF0F0F1A0
S11304A2F2F2F3F4F4F5F5F6F7F7F8F8F9F9F9FAE4
S11304B2FAFBFBFBFCFCFCFCFDFDFDFDFDFEFEFE70
S11304C2FEFEFEFEFEFEFEFEFEFEFEFEFDFDFDFD4A
S11304D2FDFCFCFCFCFBFBFBFAFAF9F9F9F8F8F772
S11304E2F7F6F5F5F4F4F3F2F2F1F0F0EFEEEEEDE7
S11304F2ECEBEAE9E9E8E7E6E5E4E3E2E1E0DFDEA2
S1130502DDDCDBDAD9D8D7D5D4D3D2D1D0CECDCC99
S1130512CBC9C8C7C6C4C3C2C0BFBEBCBBB9B8B7C7
S1130522B5B4B2B1B0AEADABAAA8A7A5A4A2A19F1F
S11305329E9C9B999896959392908F8D8B8A88878F
S1130542858482817F7D7C7A7977767473716F6E0C
S11305526C6B696866656362605F5D5C5A59575685
S1130562545351504E4D4C4A494746454342403FED
S11305723E3C3B3A38373635333231302E2D2C2B34
S11305822A2927262524232221201F1E1D1C1B1A4B
S11305921918171615151413121110100F0E0E0D2B
S11305A20C0C0B0A0A0909080707060605050504C7
S11305B2040303030202020201010101010000001B
S11305C20000000000000000000000000101010121
S11305D201020202020303030404050505060607D9
S11305E2070809090A0A0B0C0C0D0E0E0F10101144
S11305F21213141515161718191A1B1C1D1E1F2069
S113060221222324252627292A2B2C2D2E30313250
S113061233353637383A3B3C3E3F40424345464702
S1130622494A4C4D4E505153545657595A5C5D5F8A
S1130632606263656668696B6C6E6F7173747677FA
S1090642797A7C7D7F0043
S9030000FC
