S01800007369676E616C5F67656E657261746F722E7372656368
S11300000C9434000C9446000C9446000C94460066
S11300100C9446000C9446000C9446000C94460044
S11300200C9446000C9446000C9446000C94460034
S11300300C9446000C9446000C94DF000C9446008B
S11300400C9446000C9446000C9422010C9450012C
S11300500C9446000C9446000C9446000C94460004
S11300600C9446000C94460011241FBECFEFD8E038
S1130070DEBFCDBF21E0A0E0B1E001C01D92A938F0
S1130080B207E1F70E946D000C947A010C94000011
S1130090FC01408121E030E002C0220F331F6A9549
S11300A0E2F7242B20830895FC01908121E030E0C5
S11300B002C0220F331F6A95E2F72095292320837B
S11300C00895FC01408121E030E002C0220F331F7B
S11300D06A95E2F724272083089585B5877F85BD37
S11300E084B5826084BD84B58E7F84BD85B5897FE7
S11300F085BD85B5816085BDEEE6F0E080818260D6
S113010080838FE187BD60E087E290E00E94480031
S113011060E088E290E00E94540060E084E290E0B5
S11301200E94480060E085E290E00E94540061E093
S113013084E290E00E94480061E085E290E00E9441
S1130140540062E084E290E00E94480062E085E2AC
S113015090E00E94540063E084E290E00E94480032
S113016063E085E290E00E94540064E084E290E061
S11301700E94480064E085E290E00E94540065E03B
S113018084E290E00E94480065E085E290E00E94ED
S1130190540066E08AE290E00E94480066E08BE248
S11301A090E00E94540067E08AE290E00E944800D8
S11301B067E08BE290E00E9454007894FFCF1F9296
S11301C00F920FB60F9211242F933F934F935F9387
S11301D06F937F938F939F93AF93BF93EF93FF930B
S11301E02091020130910301A9014F5F5F4F5093A9
S11301F00301409302018091000190910101019655
S113020090930101809300014115524020F0109217
S113021003011092020125B960E088E290E00E9497
S11302206100FF91EF91BF91AF919F918F917F9169
S11302306F915F914F913F912F910F900FBE0F904F
S11302401F9018951F920F920FB60F9211242F939F
S11302508F939F93EF93FF938091C0002091C600EA
S11302608C71E0910601EF5FEF7390910501E9173E
S113027039F0E0930601F0E0E75FFE4F208301C010
S113028082E090910401892B80930401FF91EF9106
S11302909F918F912F910F900FBE0F901F901895E3
S11302A01F920F920FB60F9211248F939F93EF9387
S11302B0FF939091080180910701981769F0E091EC
S11302C00701EF5FEF73E0930701F0E0E75BFE4F98
S11302D080818093C60005C0E1ECF0E080818F7DD1
S11302E08083FF91EF919F918F910F900FBE0F909C
S10B02F01F901895F894FFCF4C
S9030000FC
