S01800007369676E616C5F67656E657261746F722E7372656368
S11300000C9434000C9446000C9446000C94460066
S11300100C9446000C9446000C9446000C94460044
S11300200C9446000C9446000C9446000C94460034
S11300300C9446000C9446000C9446000C94460024
S11300400C9446000C9446000C947E000C94AC0076
S11300500C9446000C9446000C9446000C94460004
S11300600C9446000C94460011241FBECFEFD8E038
S1130070DEBFCDBF21E0A0E0B1E001C01D92A538F4
S1130080B207E1F70E945A000C94D6000C940000C9
S1130090FC01808121E030E002C0220F331F6A9509
S11300A0E2F7922F90958923808380818181282B88
S11300B02183089560E08AE290E00E94480061E0B4
S11300C08AE290E00E94480062E08AE290E00E94A6
S11300D0480063E08AE290E00E94480064E08AE21B
S11300E090E00E94480065E08AE290E00E944800A7
S11300F066E08AE290E00E944800FFCF1F920F92D0
S11301000FB60F9211242F938F939F93EF93FF9326
S11301108091C0002091C6008C71E0910201EF5FD4
S1130120EF7390910101E91739F0E0930201F0E0D7
S1130130EB5FFE4F208301C082E090910001892B88
S113014080930001FF91EF919F918F912F910F90D8
S11301500FBE0F901F9018951F920F920FB60F921B
S113016011248F939F93EF93FF93909104018091B7
S11301700301981769F0E0910301EF5FEF73E093D7
S11301800301F0E0EB5BFE4F80818093C60005C065
S1130190E1ECF0E080818F7D8083FF91EF919F916E
S11301A08F910F900FBE0F901F901895F894FFCF6A
S9030000FC
