:100000000C9434000C9451000C9451000C94510049
:100010000C9451000C9451000C9451000C9451001C
:100020000C9451000C9451000C9451000C9451000C
:100030000C9451000C9451000C94F6000C94510057
:100040000C9451000C9451000C946D010C949B0184
:100050000C9451000C9451000C9451000C945100DC
:100060000C9451000C94510011241FBECFEFD8E026
:10007000DEBFCDBF13E0A0E0B1E0E6EBF3E002C0ED
:1000800005900D92A431B107D9F723E0A4E1B3E0C4
:1000900001C01D92AA39B207E1F70E9484000C94B6
:1000A000D9010C940000FC01408121E030E002C045
:1000B000220F331F6A95E2F7242B20830895FC0159
:1000C000908121E030E002C0220F331F6A95E2F7F1
:1000D0002095292320830895FC01408121E030E010
:1000E00002C0220F331F6A95E2F7242B2083089564
:1000F000FC01408121E030E002C0220F331F6A95ED
:10010000E2F724272083089585B5877F85BD84B5D0
:10011000826084BD84B58E7F84BD85B58D7F85BDAD
:1001200085B5856085BDEEE6F0E0808182608083E4
:100130008EE587BD60E087E290E00E94530060E0BA
:1001400088E290E00E945F0060E084E290E00E941C
:10015000530060E085E290E00E945F0061E084E28D
:1001600090E00E94530061E085E290E00E945F0011
:1001700062E084E290E00E94530062E085E290E059
:100180000E945F0063E084E290E00E94530063E01D
:1001900085E290E00E945F0064E084E290E00E94CB
:1001A000530064E085E290E00E945F0065E084E235
:1001B00090E00E94530065E085E290E00E945F00BD
:1001C00066E084E290E00E94530066E085E290E001
:1001D0000E945F0067E084E290E00E94530067E0C5
:1001E00085E290E00E945F007894FFCF1F920F920B
:1001F0000FB60F9211242F933F934F935F936F93FA
:100200007F938F939F93AF93BF93CF93DF93EF939E
:10021000FF9364E071E082E091E00E9456018C5E01
:100220009E4FFC01C081D0E06CE071E080E091E085
:100230000E9456018C5E9E4FFC018081C80FD11D2B
:10024000D595C795C0931403809102019091030145
:100250000196909303018093020180910001909197
:1002600001010196909301018093000160E088E212
:1002700090E00E9478008091140385B966E085E2E1
:1002800090E00E946C00FF91EF91DF91CF91BF91C0
:10029000AF919F918F917F916F915F914F913F911E
:1002A0002F910F900FBE0F901F901895CF93DF9353
:1002B000EC01E881F981DB012D913C919E2F990F92
:1002C00080E0B9010E94C501CB01E217F30710F0ED
:1002D00019821882DF91CF9108951F920F920FB665
:1002E0000F9211242F938F939F93EF93FF938091FD
:1002F000C0002091C6008C71E0911703EF5FEF738F
:1003000090911603E91739F0E0931703F0E0E65EE9
:10031000FC4F208301C082E090911503892B8093CC
:100320001503FF91EF919F918F912F910F900FBE29
:100330000F901F9018951F920F920FB60F921124D5
:100340008F939F93EF93FF939091190380911803DC
:10035000981769F0E0911803EF5FEF73E0931803CB
:10036000F0E0E65AFC4F80818093C60005C0E1ECC6
:10037000F0E080818F7D8083FF91EF919F918F913D
:100380000F900FBE0F901F901895AA1BBB1B51E139
:1003900007C0AA1FBB1FA617B70710F0A61BB70BF5
:1003A000881F991F5A95A9F780959095BC01CD019A
:0603B0000895F894FFCF50
:1003B6000E0016009B051205BC0427043B033805F6
:1003C600C50561067F8182848587888A8B8D8F909B
:1003D6009293959698999B9C9E9FA1A2A4A5A7A847
:1003E600AAABADAEB0B1B2B4B5B7B8B9BBBCBEBFBF
:1003F600C0C2C3C4C6C7C8C9CBCCCDCED0D1D2D358
:10040600D4D5D7D8D9DADBDCDDDEDFE0E1E2E3E420
:10041600E5E6E7E8E9E9EAEBECEDEEEEEFF0F0F120
:10042600F2F2F3F4F4F5F5F6F7F7F8F8F9F9F9FA64
:10043600FAFBFBFBFCFCFCFCFDFDFDFDFDFEFEFEF0
:10044600FEFEFEFEFEFEFEFEFEFEFEFEFDFDFDFDCA
:10045600FDFCFCFCFCFBFBFBFAFAF9F9F9F8F8F7F2
:10046600F7F6F5F5F4F4F3F2F2F1F0F0EFEEEEED67
:10047600ECEBEAE9E9E8E7E6E5E4E3E2E1E0DFDE22
:10048600DDDCDBDAD9D8D7D5D4D3D2D1D0CECDCC1A
:10049600CBC9C8C7C6C4C3C2C0BFBEBCBBB9B8B748
:1004A600B5B4B2B1B0AEADABAAA8A7A5A4A2A19FA0
:1004B6009E9C9B999896959392908F8D8B8A888710
:1004C600858482817F7D7C7A7977767473716F6E8D
:1004D6006C6B696866656362605F5D5C5A59575606
:1004E600545351504E4D4C4A494746454342403F6E
:1004F6003E3C3B3A38373635333231302E2D2C2BB5
:100506002A2927262524232221201F1E1D1C1B1ACB
:100516001918171615151413121110100F0E0E0DAB
:100526000C0C0B0A0A090908070706060505050447
:10053600040303030202020201010101010000009B
:1005460000000000000000000000000001010101A1
:100556000102020202030303040405050506060759
:10056600070809090A0A0B0C0C0D0E0E0F101011C4
:100576001213141515161718191A1B1C1D1E1F20E9
:1005860021222324252627292A2B2C2D2E303132D1
:1005960033353637383A3B3C3E3F40424345464783
:1005A600494A4C4D4E505153545657595A5C5D5F0B
:1005B600606263656668696B6C6E6F71737476777B
:0405C600797A7C7D45
:00000001FF
