:100000000C9434000C9451000C9451000C94510049
:100010000C9451000C9451000C9451000C9451001C
:100020000C9451000C9451000C9451000C9451000C
:100030000C9451000C9451000C94DE000C9451006F
:100040000C9451000C9451000C943A010C946801EA
:100050000C9451000C9451000C9451000C945100DC
:100060000C9451000C94510011241FBECFEFD8E026
:10007000DEBFCDBF11E0A0E0B1E0E0E5F3E002C0FB
:1000800005900D92A038B107D9F722E0A0E8B1E0C1
:1000900001C01D92AA30B207E1F70E946C000C94D7
:1000A000A6010C940000FC01408121E030E002C078
:1000B000220F331F6A95E2F7242B20830895FC0159
:1000C000908121E030E002C0220F331F6A95E2F7F1
:1000D000209529232083089585B5877F85BD84B524
:1000E000826084BD84B58E7F84BD85B5897F85BDE2
:1000F00085B5816085BDEEE6F0E080818260808319
:100100008FE187BD60E087E290E00E94530060E0ED
:1001100088E290E00E945F0060E084E290E00E944C
:10012000530060E085E290E00E945F0061E084E2BD
:1001300090E00E94530061E085E290E00E945F0041
:1001400062E084E290E00E94530062E085E290E089
:100150000E945F0063E084E290E00E94530063E04D
:1001600085E290E00E945F0064E084E290E00E94FB
:10017000530064E085E290E00E945F0065E084E265
:1001800090E00E94530065E085E290E00E945F00ED
:1001900066E08AE290E00E94530066E08BE290E025
:1001A0000E945F0067E08AE290E00E94530067E0EF
:1001B0008BE290E00E945F007894FFCF1F920F9235
:1001C0000FB60F9211242F933F934F935F936F932A
:1001D0007F938F939F93AF93BF93EF93FF9368EEBB
:1001E00073E083E891E00E942D0180509F4FFC0155
:1001F00080818093820120918301309184012F5F5F
:100200003F4F3093840120938301409180015091AE
:1002100081014F5F5F4F5093810140938001211511
:10022000324020F010928401109283018F7385B9BF
:1002300080918201807C8BB9FF91EF91BF91AF914A
:100240009F918F917F916F915F914F913F912F91EE
:100250000F900FBE0F901F901895FC018081918127
:1002600060E070E00E9492011182108280E0962F7F
:10027000990F08951F920F920FB60F9211242F938A
:100280008F939F93EF93FF938091C0002091C600BE
:100290008C71E0918701EF5FEF7390918601E91710
:1002A00039F0E0938701F0E0E657FE4F208301C06C
:1002B00082E090918501892B80938501FF91EF91D8
:1002C0009F918F912F910F900FBE0F901F901895B7
:1002D0001F920F920FB60F9211248F939F93EF935B
:1002E000FF939091890180918801981769F0E091BE
:1002F0008801EF5FEF73E0938801F0E0E653FE4F73
:1003000080818093C60005C0E1ECF0E080818F7DA4
:100310008083FF91EF919F918F910F900FBE0F906F
:100320001F901895AA1BBB1B51E107C0AA1FBB1F3A
:10033000A617B70710F0A61BB70B881F991F5A9571
:10034000A9F780959095BC01CD010895F894FFCF51
:100350007F8182848587888A8B8D8F9092939596F2
:1003600098999B9C9E9FA1A2A4A5A7A8AAABADAE5D
:10037000B0B1B2B4B5B7B8B9BBBCBEBFC0C2C3C4DC
:10038000C6C7C8C9CBCCCDCED0D1D2D3D4D5D7D87F
:10039000D9DADBDCDDDEDFE0E1E2E3E4E5E6E7E855
:1003A000E9E9EAEBECEDEEEEEFF0F0F1F2F2F3F466
:1003B000F4F5F5F6F7F7F8F8F9F9F9FAFAFBFBFBBB
:1003C000FCFCFCFCFDFDFDFDFDFEFEFEFEFEFEFE5A
:00000001FF
