:100000000C9434000C9451000C9451000C94510049
:100010000C9451000C9451000C9451000C9451001C
:100020000C9451000C943A010C9451000C94510022
:100030000C9451000C9451000C9451000C945100FC
:100040000C9418020C9451000C9451000C94510023
:100050000C9451000C9451000C9451000C945100DC
:100060000C9451000C94510011241FBECFEFD8E026
:10007000DEBFCDBF11E0A0E0B1E0E6E4F5E002C0F4
:1000800005900D92AE32B107D9F721E0AEE2B1E0B2
:1000900001C01D92A433B207E1F70E94FA000C944C
:1000A000A1020C940000299A85E08A95F1F70000DE
:1000B00029980895CF93C82F662311F0289A01C07C
:1000C0002898549A559A569A579A5F985E985D98D0
:1000D0005C98CC230CF45F9AC6FD5E9AC5FD5D9AD0
:1000E000C4FD5C9A0E9453005F985E985D985C988E
:1000F000C3FD5F9AC2FD5E9AC1FD5D9AC0FD5C9A28
:100100000E9453005C9A5D9A5E9A5F9A87EB9BE02F
:100110000197F1F700C00000CF91089560E00E94C0
:100120005A00089561E00E945A000895611104C0C8
:1001300080580E948E00089580540E948E00089579
:1001400081E00E948E00089561E00E945A000895A7
:10015000CF93DF93EC012196FC018081882329F065
:100160000E94A40089918111FBCFDF91CF91089566
:10017000CF93C82F209A559A219A549A559A569AF5
:10018000579A8FEF99EF0197F1F700C000005D9A41
:100190005C9A0E9453008FE19EE40197F1F700C042
:1001A00000000E9453008FEF90E00197F1F700C02C
:1001B00000000E9453008FEF90E00197F1F700C01C
:1001C00000005C980E9453008FEF90E00197F1F7D8
:1001D00000C0000088E20E948E0088E00E948E002D
:1001E0000E94A00086E00E948E008C2F0E948E004C
:1001F000CF9108958CE00E94B80080E40E948E00A8
:10020000C0E0D1E000E211E089910E949200C017A5
:10021000D107D1F780E80E948E0060E081E00E9463
:1002200096008FE191E00E94A80061E081E00E94C9
:10023000960082E60E94A40061E08BE00E94960096
:1002400083E60E94A400E1EBF0E080818760808378
:10025000E0E7F0E080818160808385B58D7F85BD9A
:1002600085B5856085BDEEE6F0E0808181608083A4
:100270007894FFCF1F920F920FB60F9211240F9315
:100280001F932F933F934F935F936F937F938F931E
:100290009F93AF93BF93EF93FF93CF93DF93CDB72C
:1002A000DEB72697DEBFCDBF0091330120E230E2FA
:1002B0003A8329833C832B833E832D8390913201A3
:1002C0009F5F963018F49093320197C010923201DC
:1002D000809131018F5F8A3018F48093310106C01C
:1002E0001092310181E0800F8093330180913301BE
:1002F0008C3320F4009F8001112419C01092330127
:1003000060E08BE00E94960080E20E94A40080E200
:100310000E94A40080E20E94A40080E20E94A40047
:10032000809130018F5F8093300100E010E0809178
:1003300030018C3310F010923001809131014AE08D
:10034000BE016F5F7F4F90E00E946C0260E087E02B
:100350000E949600CE0101960E94A8008091330170
:100360008A3068F44AE0BE016E5F7F4F90E00E94E1
:100370006C0280E38983809133018A3038F04AE04F
:10038000BE016F5F7F4F90E00E946C0260E084E0EE
:100390000E949600CE0101960E94A8008091300133
:1003A0008A3068F44AE0BE016E5F7F4F90E00E94A1
:1003B0006C0280E38983809130018A3038F04AE012
:1003C000BE016F5F7F4F90E00E946C0260E081E0B1
:1003D0000E949600CE0101960E94A8004AE0BE014C
:1003E0006D5F7F4FC8010E946C0260E08BE00E944D
:1003F0009600CE0103960E94A80026960FB6F894A8
:10040000DEBF0FBECDBFDF91CF91FF91EF91BF91C6
:10041000AF919F918F917F916F915F914F913F919C
:100420002F911F910F910F900FBE0F901F90189555
:100430001F920F920FB60F9211242F933F934F9359
:100440005F936F937F938F939F93AF93BF93CF935C
:10045000DF93EF93FF9361E080912F010E9496005C
:10046000E0912E01F0E0E95DFE4F80810E94A40042
:1004700080912E018F5F80932E01863038F080911D
:100480002F018F5F80932F0110922E0180912F01F9
:100490008A3078F010922F0110922E0161E080E0F6
:1004A0000E949600CAE0D0E080E20E94A40021975A
:1004B000D9F7FF91EF91DF91CF91BF91AF919F91CC
:1004C0008F917F916F915F914F913F912F910F90FD
:1004D0000FBE0F901F901895BB274A3031F4992317
:1004E00022F4BDE2909581959F4F0C947802BB2732
:1004F000FB015527AA27880F991FAA1FA41710F0E0
:10050000A41B83955051B9F7A05DAA3308F0A95DEB
:10051000A193009779F7B111B1931192CB010C948B
:100520009102DC01FC01672F71917723E1F732978B
:1005300004C07C916D9370836291AE17BF07C8F3BE
:060540000895F894FFCFBE
:100546001010101010101010181818181818181C61
:100556001C1C1C1C1C1C1C1E1E1E1E1E1E1E1E30B1
:0E056600303A30302E30002000010203FF003A
:00000001FF
