S01700004763634170706C69636174696F6E312E737265635B
S11300000C9434000C9451000C9451000C94510045
S11300100C9451000C9451000C9451000C94510018
S11300200C9451000C9451000C9451000C94510008
S11300300C9451000C9451000C94DE000C9451006B
S11300400C9451000C9451000C945A010C948801A6
S11300500C9451000C9451000C9451000C945100D8
S11300600C9451000C94510011241FBECFEFD8E022
S1130070DEBFCDBF11E0A0E0B1E0E6E8F3E002C0EE
S113008005900D92A038B107D9F722E0A0E8B1E0BD
S113009001C01D92A830B207E1F70E946C000C94D5
S11300A0C1010C940000FC01408121E030E002C059
S11300B0220F331F6A95E2F7242B20830895FC0155
S11300C0908121E030E002C0220F331F6A95E2F7ED
S11300D0209529232083089585B5877F85BD84B520
S11300E0826084BD84B58E7F84BD85B5897F85BDDE
S11300F085B5816085BDEEE6F0E080818260808315
S113010080EA87BD60E087E290E00E94530060E0EF
S113011088E290E00E945F0060E084E290E00E9448
S1130120530060E085E290E00E945F0061E084E2B9
S113013090E00E94530061E085E290E00E945F003D
S113014062E084E290E00E94530062E085E290E085
S11301500E945F0063E084E290E00E94530063E049
S113016085E290E00E945F0064E084E290E00E94F7
S1130170530064E085E290E00E945F0065E084E261
S113018090E00E94530065E085E290E00E945F00E9
S113019066E08AE290E00E94530066E08BE290E021
S11301A00E945F0067E08AE290E00E94530067E0EB
S11301B08BE290E00E945F007894FFCF1F920F9231
S11301C00FB60F9211242F933F934F935F936F9326
S11301D07F938F939F93AF93BF93EF93FF9340913C
S11301E08101509182019A01322F2227330F3695D3
S11301F0279536952795ABE7B4E10E94B201BC017F
S1130200769567954F5F5F4F4436510528F45093B8
S113021082014093810104C01092820110928101F5
S113022080E091E00E942D01809380018F7385B955
S113023080918001807C8BB9FF91EF91BF91AF9148
S11302409F918F917F916F915F914F913F912F91EA
S11302500F900FBE0F901F9018959B012F573109D7
S11302602138310540F49C01261B370BF901E1507C
S1130270FF4F808108959B013A952038310530F471
S1130280FC01E20FF31F8081819508959B012058A2
S113029031402038310548F49C01261B370BF90105
S11302A0E150FE4F808181950895FC01E60FF71F10
S11302B0808108951F920F920FB60F9211242F93ED
S11302C08F939F93EF93FF938091C0002091C6007A
S11302D08C71E0918501EF5FEF7390918401E917D0
S11302E039F0E0938501F0E0E857FE4F208301C028
S11302F082E090918301892B80938301FF91EF9198
S11303009F918F912F910F900FBE0F901F90189572
S11303101F920F920FB60F9211248F939F93EF9316
S1130320FF939091870180918601981769F0E0917D
S11303308601EF5FEF73E0938601F0E0E853FE4F30
S113034080818093C60005C0E1ECF0E080818F7D60
S11303508083FF91EF919F918F910F900FBE0F902B
S11303601F901895A29FB001B39FC001A39F700D69
S1130370811D1124911DB29F700D811D1124911DA9
S10903800895F894FFCF7C
S11303867F8182848587888A8B8D8F9092939596B8
S113039698999B9C9E9FA1A2A4A5A7A8AAABADAE23
S11303A6B0B1B2B4B5B7B8B9BBBCBEBFC0C2C3C4A2
S11303B6C6C7C8C9CBCCCDCED0D1D2D3D4D5D7D845
S11303C6D9DADBDCDDDEDFE0E1E2E3E4E5E6E7E81B
S11303D6E9E9EAEBECEDEEEEEFF0F0F1F2F2F3F42C
S11303E6F4F5F5F6F7F7F8F8F9F9F9FAFAFBFBFB81
S11303F6FCFCFCFCFDFDFDFDFDFEFEFEFEFEFEFE20
S9030000FC
