:100000000C9434000C9451000C9451000C94510049
:100010000C9451000C9451000C9451000C9451001C
:100020000C9451000C9451000C9451000C9451000C
:100030000C9451000C9442010C9451000C9451000A
:100040000C9451000C9451000C9408030C9436034A
:100050000C9451000C9457010C9451000C945100D5
:100060000C9451000C94510011241FBECFEFD8E026
:10007000DEBFCDBF11E0A0E0B1E0EEE3F7E002C0EB
:1000800005900D92AE34B107D9F721E0AEE4B1E0AE
:1000900001C01D92A339B207E1F70E9406010C943A
:1000A0009D030C940000FC01208131812F73307F6F
:1000B0002115304F29F4FC011182108281E001C02A
:1000C00080E090E00895299A85E08A95F1F7000094
:1000D00029980895CF93C82F662311F0289A01C05C
:1000E0002898549A559A569A579A5F985E985D98B0
:1000F0005C98CC230CF45F9AC6FD5E9AC5FD5D9AB0
:10010000C4FD5C9A0E9463005F985E985D985C985D
:10011000C3FD5F9AC2FD5E9AC1FD5D9AC0FD5C9A07
:100120000E9463005C9A5D9A5E9A5F9A87EB9BE0FF
:100130000197F1F700C00000CF91089560E00E94A0
:100140006A000895611104C080580E949E000895BD
:1001500080540E949E00089581E00E949E000895B0
:1001600061E00E946A000895CF93DF93EC0121962D
:10017000FC018081882329F00E94B00089918111BF
:10018000FBCFDF91CF910895CF93C82F209A559A36
:10019000219A549A559A569A579A8FEF99EF019748
:1001A000F1F700C000005D9A5C9A0E9463008FE145
:1001B0009EE40197F1F700C000000E9463008FEFFA
:1001C00090E00197F1F700C000000E9463008FEFFC
:1001D00090E00197F1F700C000005C980E94630076
:1001E0008FEF90E00197F1F700C0000088E20E94D5
:1001F0009E0088E00E949E000E94AC0086E00E9463
:100200009E008C2F0E949E00CF9108958CE00E944A
:10021000C40060E081E00E94A20080E291E00E94C0
:10022000B40061E081E00E94A20080E291E00E94BF
:10023000B400ECE7F0E080818064808380818F7778
:1002400080838081807F8083EAE7F0E0808180681E
:100250008083808188608083808187608083E1E8FB
:10026000F0E08081897F8083808181608083EFE6F8
:10027000F0E080818160808387E690E00E946003E7
:100280007894FFCF1F920F920FB60F9211248F9385
:10029000EF93FF93EAE7F0E0808180648083FF9131
:1002A000EF918F910F900FBE0F901F9018951F9296
:1002B0000F920FB60F9211242F933F934F935F939A
:1002C0006F937F938F939F93AF93BF93EF93FF931E
:1002D0004091780050917900E0E0F1E020E231E0D7
:1002E00080819181880F991F816081939193E2179A
:1002F000F307B1F7413D82E0580708F078C1CA0121
:1003000085599240CC9790F4E0E0F1E080819181B2
:100310008E7F91838083CF010E945300892B09F443
:1003200066C18DE291E00E948E0361C1CA018356CD
:100330009240C29798F4E0E0F1E0828193818E7F51
:100340009383828382E091E00E945300892B09F419
:100350004EC18FE291E00E948E0349C1CA018B53C6
:100360009240889798F4E0E0F1E0848195818E7F57
:100370009583848384E091E00E945300892B09F4E3
:1003800036C181E391E00E948E0331C1CA018351DD
:100390009240889798F4E0E0F1E0868197818E7F23
:1003A0009783868386E091E00E945300892B09F4AD
:1003B0001EC183E391E00E948E0319C1CA018B5EC6
:1003C0009140889798F4E0E0F1E0808591858E7FF8
:1003D0009187808788E091E00E945300892B09F47F
:1003E00006C185E391E00E948E0301C1CA018D5CC4
:1003F00091404E9798F4E0E0F1E0828593858E7FFE
:10040000938782878AE091E00E945300892B09F448
:10041000EEC087E391E00E948E03E9C0CA018F5AC3
:1004200091404E9798F4E0E0F1E0848595858E7FC9
:10043000958784878CE091E00E945300892B09F412
:10044000D6C089E391E00E948E03D1C0CA018758CB
:100450009140889798F4E0E0F1E0868597858E7F5B
:10046000978786878EE091E00E945300892B09F4DC
:10047000BEC08BE391E00E948E03B9C0CA018555CE
:100480009140C29798F4E0E0F1E0808991898E7FF5
:10049000918B808B80E191E00E945300892B09F4BD
:1004A000A6C08DE391E00E948E03A1C0CA018352D1
:1004B0009140C29798F4E0E0F1E0828993898E7FC1
:1004C000938B828B82E191E00E945300892B09F487
:1004D0008EC08FE391E00E948E0389C0CA01875EBF
:1004E0009109CC9798F4E0E0F1E0848995898E7FBA
:1004F000958B848B84E191E00E945300892B09F451
:1005000076C081E491E00E948E0371C0CA018F5BC6
:100510009109889798F4E0E0F1E0868997898E7FC9
:10052000978B868B86E191E00E945300892B09F41A
:100530005EC083E491E00E948E0359C0CA018759CE
:100540009109889798F4E0E0F1E0808D918D8E7F9D
:10055000918F808F88E191E00E945300892B09F4EC
:1005600046C085E491E00E948E0341C0CA018F56C7
:100570009109889790F4E0E0F1E0828D938D8E7F71
:10058000938F828F8AE191E00E945300892B79F149
:1005900087E491E00E948E032AC0CA01C397CC97DA
:1005A00090F4E0E0F1E0848D958D8E7F958F848FBF
:1005B0008CE191E00E945300892BC9F089E491E01D
:1005C0000E948E0314C04333510588F4E0E0F1E04B
:1005D000868D978D8E7F978F868F8EE191E00E941A
:1005E0005300892B21F08BE491E00E948E03FF9150
:1005F000EF91BF91AF919F918F917F916F915F919B
:100600004F913F912F910F900FBE0F901F90189513
:100610001F920F920FB60F9211242F938F939F93D7
:10062000EF93FF938091C0002091C6008C71E09100
:100630005001EF5FEF7190914F01E91739F0E093AE
:100640005001F0E0ED5AFE4F208301C082E090910E
:100650004E01892B80934E01FF91EF919F918F91D5
:100660002F910F900FBE0F901F9018951F920F9211
:100670000FB60F9211248F939F93EF93FF93909156
:10068000520180915101981769F0E0915101EF5F9B
:10069000EF71E0935101F0E0ED58FE4F80818093BF
:1006A000C60005C0E1ECF0E080818F7D8083FF9182
:1006B000EF919F918F910F900FBE0F901F90189503
:1006C00010925201109251011092500110924F015C
:1006D00099231CF422E02093C00090789093C500E9
:1006E0008093C40088E98093C10086E08093C200B3
:1006F0000895209152012F5F2F7190915101291778
:10070000E1F3E22FF0E0ED58FE4F80832093520199
:10071000E1ECF0E08081806280830895CF93DF93E5
:10072000EC018881882331F021960E947903899118
:0E0730008111FBCFDF91CF910895F894FFCF98
:10073E00FFFFFFFFFFFFFFFFFFFFFFFFFFFFFFFFBB
:10074E00FFFFFFFFFFFFFFFFFFFFFFFFFFFFFFFFAB
:10075E0020202020202020202020202000310034A6
:10076E000037002A003200330041003500360042C7
:0E077E00003800390030004300230044000022
:00000001FF
