:100000000C9434000C943E000C943E000C943E0082
:100010000C943E000C943E000C943E000C943E0068
:100020000C943E000C943E000C943E000C943E0058
:100030000C943E000C943E000C943E000C943E0048
:100040000C943E000C943E000C943E000C943E0038
:100050000C943E000C943E000C943E000C943E0028
:100060000C943E000C943E0011241FBECFEFD8E04C
:10007000DEBFCDBF0E9440000C9462000C940000D3
:10008000259A2D98389A40985098589A21E090E2F5
:1000900048990FC03FEF44E38CE03150404080402E
:1000A000E1F700C0000088B1822788B985B18927AF
:1000B00085B9489BEDCF88B188B985B185B9489994
:0800C000FACFE6CFF894FFCF60
:00000001FF
