S00E0000637669635F322E73726563E0
S11300000C9434000C943E000C943E000C943E007E
S11300100C943E000C943E000C943E000C943E0064
S11300200C943E000C943E000C943E000C943E0054
S11300300C943E000C943E000C943E000C943E0044
S11300400C943E000C943E000C943E000C943E0034
S11300500C943E000C943E000C943E000C943E0024
S11300600C943E000C943E0011241FBECFEFD8E048
S1130070DEBFCDBF0E9440000C9456000C940000DB
S1130080259A2D98389A40985098589A91E02FEFD5
S113009034E38CE0215030408040E1F700C00000A0
S11300A0489BF5CF88B1892788B9F1CFF894FFCF61
S9030000FC
