:100000000C9434000C9451000C9451000C94510049
:100010000C9451000C9451000C9451000C9451001C
:100020000C9451000C9451000C9451000C9451000C
:100030000C9451000C94E5010C94A3040C94510011
:100040000C9451000C9451000C94BC050C94EA05DE
:100050000C9451000C9431020C9451000C945100FA
:100060000C9451000C94510011241FBECFEFD8E026
:10007000DEBFCDBF11E0A0E0B1E0EAEBFDE002C0E1
:1000800005900D92A83DB107D9F722E0A8EDB1E0A7
:1000900001C01D92A236B207E1F70E9443010C9401
:1000A000DB060C940000FC01208131812F73307F2E
:1000B0002115304F29F4FC011182108281E001C02A
:1000C00080E090E00895FC01408121E030E002C032
:1000D000220F331F6A95E2F7242B20830895FC0139
:1000E000908121E030E002C0220F331F6A95E2F7D1
:1000F000209529232083089540FF0CC0FC014081F6
:1001000021E030E002C0220F331F6A95E2F7242B72
:1001100020830895FC01408121E030E002C0220FDD
:10012000331F6A95E2F7209524232083089590E0F9
:10013000615002C0959587956A95E2F781700895A0
:10014000299A85E08A95F1F7000029980895CF93C0
:10015000C82F662311F0289A01C02898549A559AFE
:10016000569A579A5F985E985D985C98CC230CF4E9
:100170005F9AC6FD5E9AC5FD5D9AC4FD5C9A0E94B9
:10018000A0005F985E985D985C98C3FD5F9AC2FD81
:100190005E9AC1FD5D9AC0FD5C9A0E94A0005C9AC7
:1001A0005D9A5E9A5F9A87EB9BE00197F1F700C03A
:1001B0000000CF91089560E00E94A70008956111AA
:1001C00004C080580E94DB00089580540E94DB0028
:1001D000089581E00E94DB00089561E00E94A7007D
:1001E0000895CF93DF93EC012196FC018081882351
:1001F00029F00E94ED0089918111FBCFDF91CF9111
:100200000895CF93C82F209A559A219A549A559AB7
:10021000569A579A8FEF99EF0197F1F700C00000B7
:100220005D9A5C9A0E94A0008FE19EE40197F1F72D
:1002300000C000000E94A0008FEF90E00197F1F74E
:1002400000C000000E94A0008FEF90E00197F1F73E
:1002500000C000005C980E94A0008FEF90E0019722
:10026000F1F700C0000088E20E94DB0088E00E94F5
:10027000DB000E94E90086E00E94DB008C2F0E94D8
:10028000DB00CF910895ECE7F0E08081806480830B
:1002900080818F7780838081807F8083EAE7F0E0B0
:1002A000808180688083808188608083808187608E
:1002B0008083E1E8F0E08081897F808380818160B4
:1002C0008083EFE6F0E080818160808387E690E0C4
:1002D0000E94140685B5877F85BD84B5826084BD84
:1002E00084B58E7F84BD85B5897F85BD85B58160E8
:1002F00085BDEEE6F0E080818260808380EA87BD84
:1003000063E08AE290E00E94630063E08BE290E0A9
:100310000E946F0060E08AE290E00E94630060E06B
:100320008BE290E00E946F0062E084E290E00E9425
:10033000630062E085E290E00E946F0063E084E287
:1003400090E00E94630063E085E290E00E946F000D
:1003500064E084E290E00E94630064E085E290E063
:100360000E946F0065E084E290E00E94630065E017
:1003700085E290E00E946F0061E08AE290E00E94D6
:10038000630061E08BE290E00E946F0062E08AE22D
:1003900090E00E94630062E08BE290E00E946F00B8
:1003A0008CE00E94010160E080E00E94DF0084EAAE
:1003B00091E00E94F10061E080E00E94DF008BEAA2
:1003C00091E00E94F1007894FFCF1F920F920FB638
:1003D0000F9211242F933F934F935F936F937F93CB
:1003E0008F939F93AF93BF93CF93DF93EF93FF933D
:1003F000C2EBD1E0DD274AE0BE018091A2019091DD
:10040000A3010E94A6064AE0BE018091A00190913E
:10041000A1010E94A60660E08AE00E94DF00CE01F2
:100420000E94F10061E08AE00E94DF00CE010E949C
:10043000F100EAE7F0E0808180648083FF91EF9132
:10044000DF91CF91BF91AF919F918F917F916F91EC
:100450005F914F913F912F910F900FBE0F901F9082
:1004600018951F920F920FB60F9211242F933F935E
:100470004F935F936F937F938F939F93AF93BF93AC
:10048000EF93FF934091780050917900E0E8F1E01C
:1004900020EA31E080819181880F991F81608193EA
:1004A0009193E217F307B1F7413D82E0580708F056
:1004B00039C2CA0185599240CC97F0F4E0E8F1E0E6
:1004C000808191818E7F91838083CF010E94530030
:1004D000892B09F427C287EB91E00E9442068AE249
:1004E00093E09093A3018093A20189EB94E0909311
:1004F000A1018093A00116C2CA0183569240C297FF
:10050000F8F4E0E8F1E0828193818E7F9383828327
:1005100082E891E00E945300892B09F403C289EB21
:1005200091E00E94420680E793E09093A3018093BC
:10053000A20189EB94E09093A1018093A001F2C104
:10054000CA018B5392408897F8F4E0E8F1E0848187
:1005500095818E7F9583848384E891E00E94530087
:10056000892B09F4DFC18BEB91E00E94420686EBF8
:1005700093E09093A3018093A20189EB94E0909380
:10058000A1018093A001CEC1CA01835192408897F6
:10059000F8F4E0E8F1E0868197818E7F9783868387
:1005A00086E891E00E945300892B09F4BBC18DEBD2
:1005B00091E00E9442068CEF93E09093A301809318
:1005C000A20189EB94E09093A1018093A001AAC1BC
:1005D000CA018B5E91408897F8F4E0E8F1E08085ED
:1005E00091858E7F9187808788E891E00E945300F3
:1005F000892B09F497C18FEB91E00E9442068AE2B1
:1006000093E09093A3018093A20188E395E09093F7
:10061000A1018093A00186C1CA018D5C91404E97D3
:10062000F8F4E0E8F1E0828593858E7F93878287F6
:100630008AE891E00E945300892B09F473C181EC90
:1006400091E00E9442068AE293E09093A301809396
:10065000A20185EC95E09093A1018093A00162C175
:10066000CA018F5A91404E97F8F4E0E8F1E0848592
:1006700095858E7F958784878CE891E00E94530052
:10068000892B09F44FC183EC91E00E9442068AE273
:1006900093E09093A3018093A20181E696E090936A
:1006A000A1018093A0013EC1CA018758914088975B
:1006B000F8F4E0E8F1E0868597858E7F9787868756
:1006C0008EE891E00E945300892B09F42BC185EC40
:1006D00091E00E94420680E793E09093A30180930B
:1006E000A20188E395E09093A1018093A0011AC133
:1006F000CA0185559140C297F8F4E0E8F1E080899D
:1007000091898E7F918B808B80E991E00E945300CC
:10071000892B09F407C187EC91E00E94420680E72B
:1007200093E09093A3018093A20185EC95E09093D0
:10073000A1018093A001F6C0CA0183529140C297E3
:10074000F8F4E0E8F1E0828993898E7F938B828BC5
:1007500082E991E00E945300892B09F4E3C089ECFF
:1007600091E00E94420680E793E09093A30180937A
:10077000A20181E696E09093A1018093A001D2C0EE
:10078000CA01875E9109CC97F8F4E0E8F1E084892A
:1007900095898E7F958B848B84E991E00E9453002C
:1007A000892B09F4BFC08BEC91E00E94420686EBD6
:1007B00093E09093A3018093A20188E395E0909346
:1007C000A1018093A001AEC0CA018F5B91098897F7
:1007D000F8F4E0E8F1E0868997898E7F978B868B25
:1007E00086E991E00E945300892B09F49BC08DECAF
:1007F00091E00E94420686EB93E09093A3018093E0
:10080000A20185EC95E09093A1018093A0018AC09C
:10081000CA01875991098897F8F4E0E8F1E0808DE2
:10082000918D8E7F918F808F88E991E00E94530097
:10083000892B09F477C08FEC91E00E9442068CEF7F
:1008400093E09093A3018093A20188E395E09093B5
:10085000A1018093A00166C0CA018F5691098897B3
:10086000F8F4E0E8F1E0828D938D8E7F938F828F94
:100870008AE991E00E945300892B09F453C081ED6D
:1008800091E00E94420686EB93E09093A30180934F
:10089000A20181E696E09093A1018093A00142C05D
:1008A000CA01C397CC97F0F4E0E8F1E0848D958D10
:1008B0008E7F958F848F8CE991E00E945300892B65
:1008C00089F183ED91E00E9442068CEF93E09093D2
:1008D000A3018093A20185EC95E09093A101809300
:1008E000A00120C043335105E8F4E0E8F1E0868D33
:1008F000978D8E7F978F868F8EE991E00E945300AF
:10090000892B81F085ED91E00E9442068CEF93E007
:100910009093A3018093A20181E696E09093A101B8
:100920008093A001FF91EF91BF91AF919F918F9123
:100930007F916F915F914F913F912F910F900FBEDB
:100940000F901F9018951F920F920FB60F921124BF
:100950008F929F92AF92BF92EF92FF920F931F934D
:100960002F933F934F935F936F937F938F939F93B7
:10097000AF93BF93CF93DF93EF93FF932091A201A7
:100980003091A30140E050E00F2EF0EA8F2EF6E800
:100990009F2EAA24A394B12CF02DC501B4010E946E
:1009A000650679012091A0013091A10140E050E05D
:1009B000C501B4010E946506E091DB01F091DC0104
:1009C0009E2F990F80E0B7010E9451065B01C091F4
:1009D000D901D091DA019C2F990F80E0B9010E94D2
:1009E00051068B013196EE15FF0528F4F093DC01DA
:1009F000E093DB0104C01092DC011092DB01219630
:100A0000C217D30728F4D093DA01C093D90104C0E8
:100A10001092DA011092D901B50180E091E00E94B4
:100A20008F05C82FB80180E091E00E948F0590E00B
:100A30008C0F911D959587958093D80161E00E9458
:100A40009700482F63E08BE290E00E947C0062E018
:100A50008091D8010E949700482F60E08BE290E0DF
:100A60000E947C0063E08091D8010E949700482F8B
:100A700062E085E290E00E947C0064E08091D80111
:100A80000E949700482F63E085E290E00E947C007E
:100A900065E08091D8010E949700482F64E085E2CC
:100AA00090E00E947C0066E08091D8010E9497004F
:100AB000482F65E085E290E00E947C0067E080912D
:100AC000D8010E949700482F61E08BE290E00E94DD
:100AD0007C0068E08091D8010E949700482F62E076
:100AE0008BE290E00E947C00FF91EF91DF91CF912B
:100AF000BF91AF919F918F917F916F915F914F9136
:100B00003F912F911F910F91FF90EF90BF90AF9069
:100B10009F908F900F900FBE0F901F9018959B0184
:100B20002F5731092138310540F49C01261B370B22
:100B3000F901E150FF4F808108959B013A952038DB
:100B4000310530F4FC01E20FF31F80818195089597
:100B50009B01205831402038310548F49C01261B68
:100B6000370BF901E150FE4F808181950895FC011A
:100B7000E60FF71F808108951F920F920FB60F9214
:100B800011242F938F939F93EF93FF938091C00035
:100B90002091C6008C71E091DF01EF5FEF739091BF
:100BA000DE01E91739F0E093DF01F0E0EE51FE4F8E
:100BB000208301C082E09091DD01892B8093DD01CB
:100BC000FF91EF919F918F912F910F900FBE0F90FA
:100BD0001F9018951F920F920FB60F9211248F93AA
:100BE0009F93EF93FF939091E1018091E00198171B
:100BF00069F0E091E001EF5FEF73E093E001F0E076
:100C0000EE5DFD4F80818093C60005C0E1ECF0E011
:100C100080818F7D8083FF91EF919F918F910F90C5
:100C20000FBE0F901F9018951092E1011092E001F5
:100C30001092DF011092DE0199231CF422E0209330
:100C4000C00090789093C5008093C40088E9809399
:100C5000C10086E08093C20008952091E1012F5FDA
:100C60002F739091E0012917E1F3E22FF0E0EE5DA0
:100C7000FD4F80832093E101E1ECF0E08081806210
:100C800080830895CF93DF93EC018881882331F02E
:100C900021960E942D0689918111FBCFDF91CF9182
:100CA0000895AA1BBB1B51E107C0AA1FBB1FA617B3
:100CB000B70710F0A61BB70B881F991F5A95A9F705
:100CC00080959095BC01CD010895052E97FB1EF4EB
:100CD00000940E947C0657FD07D00E94840607FC02
:100CE00003D04EF40C947C06509540953095219598
:100CF0003F4F4F4F5F4F0895909580957095619548
:100D00007F4F8F4F9F4F0895A1E21A2EAA1BBB1B46
:100D1000FD010DC0AA1FBB1FEE1FFF1FA217B307C7
:100D2000E407F50720F0A21BB30BE40BF50B661FDD
:100D3000771F881F991F1A9469F7609570958095A1
:100D400090959B01AC01BD01CF010895BB274A30AE
:100D500031F4992322F4BDE2909581959F4F0C9434
:100D6000B206BB27FB015527AA27880F991FAA1F88
:100D7000A41710F0A41B83955051B9F7A05DAA33B6
:100D800008F0A95DA193009779F7B111B193119281
:100D9000CB010C94CB06DC01FC01672F719177230A
:100DA000E1F7329704C07C916D9370836291AE1726
:0A0DB000BF07C8F30895F894FFCFC1
:100DBA007F8182848587888A8B8D8F90929395967E
:100DCA0098999B9C9E9FA1A2A4A5A7A8AAABADAEE9
:100DDA00B0B1B2B4B5B7B8B9BBBCBEBFC0C2C3C468
:100DEA00C6C7C8C9CBCCCDCED0D1D2D3D4D5D7D80B
:100DFA00D9DADBDCDDDEDFE0E1E2E3E4E5E6E7E8E1
:100E0A00E9E9EAEBECEDEEEEEFF0F0F1F2F2F3F4F1
:100E1A00F4F5F5F6F7F7F8F8F9F9F9FAFAFBFBFB46
:100E2A00FCFCFCFCFDFDFDFDFDFEFEFEFEFEFEFEE5
:100E3A00FFFFFFFFFFFFFFFFFFFFFFFFFFFFFFFFB8
:100E4A00FFFFFFFFFFFFFFFFFFFFFFFFFFFFFFFFA8
:100E5A003805E80346524551313A00465245513267
:100E6A003A0020202020003100340037002A0032C6
:100E7A0000330041003500360042003800390030A6
:080E8A000043002300440000B6
:00000001FF
