:100000000C9434000C943E000C943E000C943E0082
:100010000C943E000C943E000C943E000C943E0068
:100020000C943E000C943E000C943E000C943E0058
:100030000C943E000C943E000C943E000C943E0048
:100040000C943E000C943E000C943E000C943E0038
:100050000C943E000C943E000C943E000C943E0028
:100060000C943E000C943E0011241FBECFEFD8E04C
:10007000DEBFCDBF0E9440000C94B9000C9400007C
:100080008FEF84B915B85098589AE0E0A1E0FFEFDF
:1000900021E030E04FEF54E36CE0415050406040CD
:1000A000E1F700C000008BB1EA27F5B9E0FFF2CF1D
:1000B00080E090E055B1B901082E02C0660F771FAD
:1000C0000A94E2F7462F4095452345B9CFEFD0E794
:1000D00042E0C150D0404040E1F700C0000065B1AF
:1000E000AC0141505109E90102C0CC0FDD1F4A9516
:1000F000E2F7AE01462B45B9DFEF44E35CE0D150B7
:1001000040405040E1F700C0000001968830910562
:1001100089F687E090E055B1B901082E02C0660F5C
:10012000771F0A94E2F7462F4095452345B96FEFB4
:10013000C0E7D2E06150C040D040E1F700C000000D
:1001400065B1AC014F5F5F4FE90102C0CC0FDD1F0D
:100150004A95E2F7AE01462B45B9DFEF44E35CE098
:10016000D15040405040E1F700C00000019798F6A0
:0601700091CFF894FFCFCF
:00000001FF
